:020000040800F2
:1000000000500020495F00087187000873870008CE
:1000100075870008778700087987000800000000CE
:100020000000000000000000000000007B870008C6
:100030007D870008000000007F870008995F0008A6
:10004000995F0008995F0008995F0008995F0008B0
:10005000995F0008995F0008995F0008995F0008A0
:10006000995F0008995F0008995F0008995F000890
:10007000995F0008995F0008995F0008995F000880
:10008000995F0008995F0008995F0008995F000870
:1000900081870008995F0008995F0008D96E000801
:1000A000995F0008995F0008995F0008995F000850
:1000B0008D6000081D630008995F0008995F0008C3
:1000C000995F0008995F0008995F0008995F000830
:1000D000995F0008A1540008995F0008995F000823
:1000E0008D2A0008995F0008995F00080000000051
:1000F0000000000000000000000000000000000000
:0C01000000000000000000005FF808F1A3
:1001100010B5054C237833B9044B13B10448AFF341
:1001200000800123237010BDF801002000000000B2
:10013000D0A2000808B5034B1BB103490348AFF335
:10014000008008BD00000000FC010020D0A20008D3
:1001500081F0004102E000BF83F0004330B54FEA78
:1001600041044FEA430594EA050F08BF90EA020FE5
:100170001FBF54EA000C55EA020C7FEA645C7FEA78
:10018000655C00F0E2804FEA5454D4EB5555B8BF9B
:100190006D420CDD2C4480EA020281EA030382EA0C
:1001A000000083EA010180EA020281EA0303362D9E
:1001B00088BF30BD11F0004F4FEA01314FF4801C71
:1001C0004CEA113102D0404261EB410113F0004F83
:1001D0004FEA03334CEA133302D0524263EB43033A
:1001E00094EA050F00F0A780A4F10104D5F1200ED8
:1001F0000DDB02FA0EFC22FA05F2801841F1000133
:1002000003FA0EF2801843FA05F359410EE0A5F106
:1002100020050EF1200E012A03FA0EFC28BF4CF037
:10022000020C43FA05F3C01851EBE37101F00045ED
:1002300007D54FF0000EDCF1000C7EEB00006EEBFA
:100240000101B1F5801F1BD3B1F5001F0CD3490884
:100250005FEA30004FEA3C0C04F101044FEA4452DB
:1002600012F5800F80F09A80BCF1004F08BF5FEA62
:10027000500C50F1000041EB045141EA050130BD42
:100280005FEA4C0C404141EB010111F4801FA4F1E5
:100290000104E9D191F0000F04BF01460020B1FA3A
:1002A00081F308BF2033A3F10B03B3F120020CDA72
:1002B0000C3208DD02F1140CC2F10C0201FA0CF050
:1002C00021FA02F10CE002F11402D8BFC2F1200CB5
:1002D00001FA02F120FA0CFCDCBF41EA0C0190406B
:1002E000E41AA2BF01EB0451294330BD6FEA0404B4
:1002F0001F3C1CDA0C340EDC04F11404C4F120029F
:1003000020FA04F001FA02F340EA030021FA04F3B0
:1003100045EA030130BDC4F10C04C4F1200220FA07
:1003200002F001FA04F340EA0300294630BD21FA45
:1003300004F0294630BD94F0000F83F4801306BF0B
:1003400081F480110134013D4EE77FEA645C18BFFF
:100350007FEA655C29D094EA050F08BF90EA020F96
:1003600005D054EA000C04BF1946104630BD91EA8E
:10037000030F1EBF0021002030BD5FEA545C05D191
:100380004000494128BF41F0004130BD14F58004D0
:100390003CBF01F5801130BD01F0004545F0FE4144
:1003A00041F470014FF0000030BD7FEA645C1ABF79
:1003B000194610467FEA655C1CBF0B46024650EAB0
:1003C000013406BF52EA033591EA030F41F40021DC
:1003D00030BD00BF90F0000F04BF0021704730B562
:1003E0004FF4806404F132044FF000054FF0000137
:1003F00050E700BF90F0000F04BF0021704730B5F8
:100400004FF4806404F1320410F0004548BF4042CC
:100410004FF000013EE700BF42004FEAE2014FEA21
:1004200031014FEA02701FBF12F07F4393F07F4FFC
:1004300081F06051704792F0000F14BF93F07F4F2E
:10044000704730B54FF4607401F0004521F0004171
:1004500020E700BF50EA010208BF704730B54FF0F7
:1004600000050AE050EA010208BF704730B511F0FC
:10047000004502D5404261EB41014FF4806404F134
:1004800032045FEA915C3FF4DCAE4FF003025FEAB6
:10049000DC0C18BF03325FEADC0C18BF033202EB3E
:1004A000DC02C2F1200300FA03FC20FA02F001FA98
:1004B00003FE40EA0E0021FA02F11444C1E600BF37
:1004C00070B54FF0FF0C4CF4E06C1CEA11541DBFEA
:1004D0001CEA135594EA0C0F95EA0C0F00F0DEF8B5
:1004E0002C4481EA030621EA4C5123EA4C5350EA9A
:1004F000013518BF52EA033541F4801143F48013EB
:1005000038D0A0FB02CE4FF00005E1FB02E506F07B
:100510000042E0FB03E54FF00006E1FB03569CF0D0
:10052000000F18BF4EF0010EA4F1FF04B6F5007FD6
:1005300064F5407404D25FEA4E0E6D4146EB060648
:1005400042EAC62141EA55514FEAC52040EA5E50D1
:100550004FEACE2EB4F1FD0C88BFBCF5E06F1ED87B
:10056000BEF1004F08BF5FEA500E50F1000041EBB2
:10057000045170BD06F0004646EA010140EA02005F
:1005800081EA0301B4EB5C04C2BFD4EB0C0541EA81
:10059000045170BD41F480114FF0000E013C00F396
:1005A000AB8014F1360FDEBF002001F0004170BDBA
:1005B000C4F10004203C35DA0C341BDC04F11404D3
:1005C000C4F1200500FA05F320FA04F001FA05F25F
:1005D00040EA020001F0004221F0004110EBD3702C
:1005E00021FA04F642EB06015EEA430E08BF20EA58
:1005F000D37070BDC4F10C04C4F1200500FA04F3FB
:1006000020FA05F001FA04F240EA020001F000418C
:1006100010EBD37041F100015EEA430E08BF20EAFF
:10062000D37070BDC4F1200500FA05F24EEA020E47
:1006300020FA04F301FA05F243EA020321FA04F076
:1006400001F0004121FA04F220EA020000EBD3702D
:100650005EEA430E08BF20EAD37070BD94F0000F2D
:100660000FD101F00046400041EB010111F4801F61
:1006700008BF013CF7D041EA060195F0000F18BF12
:10068000704703F00046520043EB030313F4801F4E
:1006900008BF013DF7D043EA0603704794EA0C0F08
:1006A0000CEA135518BF95EA0C0F0CD050EA41061E
:1006B00018BF52EA4306D1D181EA030101F000419B
:1006C0004FF0000070BD50EA410606BF10461946C3
:1006D00052EA430619D094EA0C0F02D150EA0136CF
:1006E00013D195EA0C0F05D152EA03361CBF104610
:1006F00019460AD181EA030101F0004141F0FE41AF
:1007000041F470014FF0000070BD41F0FE4141F432
:10071000780170BD70B54FF0FF0C4CF4E06C1CEA32
:1007200011541DBF1CEA135594EA0C0F95EA0C0FE7
:1007300000F0A7F8A4EB050481EA030E52EA0335A2
:100740004FEA013100F088804FEA03334FF08055C3
:1007500045EA131343EA12634FEA022245EA1115F0
:1007600045EA10654FEA00260EF000419D4208BFA1
:10077000964244F1FD0404F5407402D25B084FEA4E
:100780003202B61A65EB03055B084FEA32024FF4FA
:1007900080104FF4002CB6EB020E75EB030E22BF57
:1007A000B61A754640EA0C005B084FEA3202B6EB17
:1007B000020E75EB030E22BFB61A754640EA5C00C6
:1007C0005B084FEA3202B6EB020E75EB030E22BF56
:1007D000B61A754640EA9C005B084FEA3202B6EB57
:1007E000020E75EB030E22BFB61A754640EADC0016
:1007F00055EA060E18D04FEA051545EA16754FEA78
:1008000006164FEAC30343EA52734FEAC2025FEA95
:100810001C1CC0D111F4801F0BD141EA00014FF024
:1008200000004FF0004CB6E711F4801F04BF0143F5
:100830000020B4F1FD0C88BFBCF5E06F3FF6AFAE11
:10084000B5EB030C04BFB6EB020C5FEA500C50F1A1
:10085000000041EB045170BD0EF0004E4EEA113124
:1008600014EB5C04C2BFD4EB0C0541EA045170BD2B
:1008700041F480114FF0000E013C90E645EA060E6F
:100880008DE60CEA135594EA0C0F08BF95EA0C0F9D
:100890003FF43BAF94EA0C0F0AD150EA01347FF4E5
:1008A00034AF95EA0C0F7FF425AF104619462CE7BC
:1008B00095EA0C0F06D152EA03353FF4FDAE10461F
:1008C000194622E750EA410618BF52EA43067FF470
:1008D000C5AE50EA41047FF40DAF52EA43057FF400
:1008E000EBAE12E74FF0FF3C06E000BF4FF0010C0B
:1008F00002E000BF4FF0010C4DF804CD4FEA410C6F
:100900007FEA6C5C4FEA430C18BF7FEA6C5C1BD03B
:1009100001B050EA410C0CBF52EA430C91EA030FBC
:1009200002BF90EA020F0020704710F1000F91EA19
:10093000030F58BF994208BF90422CBFD8176FEAE7
:10094000E37040F0010070474FEA410C7FEA6C5CB5
:1009500002D150EA013C07D14FEA430C7FEA6C5CBC
:10096000D6D152EA033CD3D05DF8040B704700BFE8
:100970008446104662468C461946634600E000BF36
:1009800001B5FFF7B7FF002848BF10F1000F01BD08
:100990004DF808EDFFF7F4FF0CBF012000205DF8D3
:1009A00008FB00BF4DF808EDFFF7EAFF34BF012058
:1009B00000205DF808FB00BF4DF808EDFFF7E0FFF1
:1009C00094BF012000205DF808FB00BF4DF808ED42
:1009D000FFF7CEFF94BF012000205DF808FB00BFA9
:1009E0004DF808EDFFF7C4FF34BF012000205DF88B
:1009F00008FB00BF4FEA410C7FEA6C5C02D150EA71
:100A0000013C0AD14FEA430C7FEA6C5C02D152EA06
:100A1000033C02D14FF0000070474FF001007047D7
:100A20004FEA410212F5001215D211D56FF4787316
:100A3000B3EB625212D94FEAC12343F0004343EAB9
:100A4000505311F0004F23FA02F018BF4042704794
:100A50004FF00000704750EA013005D111F000401E
:100A600008BF6FF0004070474FF00000704700BFB4
:100A70004FEA4102B2F1E04324BFB3F5001CDCF1C0
:100A8000FE5C0DD901F0004C4FEAC0024CEA5070F8
:100A9000B2F1004F40EB830008BF20F00100704727
:100AA00011F0804F21D113F13872BCBF01F000402A
:100AB000704741F480114FEA5252C2F11802C2F15C
:100AC000200C10FA0CF320FA02F018BF40F00100DD
:100AD0004FEAC1234FEAD32303FA0CFC40EA0C008F
:100AE00023FA02F34FEA4303CCE77FEA625307D1CC
:100AF00050EA01331EBF4FF0FE4040F44000704703
:100B000001F0004040F0FE4040F40000704700BF9C
:100B100080F0004002E000BF81F0004142001FBFB2
:100B20005FEA410392EA030F7FEA226C7FEA236CBB
:100B30006AD04FEA1262D2EB1363C1BFD2184140B0
:100B400048404140B8BF5B42192B88BF704710F046
:100B5000004F40F4000020F07F4018BF404211F0E9
:100B6000004F41F4000121F07F4118BF494292EA51
:100B7000030F3FD0A2F1010241FA03FC10EB0C007D
:100B8000C3F1200301FA03F100F0004302D549420A
:100B900060EB4000B0F5000F13D3B0F1807F06D3B7
:100BA00040084FEA310102F10102FE2A51D2B1F1AF
:100BB000004F40EBC25008BF20F0010040EA0300A4
:100BC0007047490040EB000010F4000FA2F1010251
:100BD000EDD1B0FA80FCACF1080CB2EB0C0200FADB
:100BE0000CF0AABF00EBC25052421843BCBFD04029
:100BF0001843704792F0000F81F4000106BF80F4A3
:100C000000000132013BB5E74FEA41037FEA226C65
:100C100018BF7FEA236C21D092EA030F04D092F030
:100C2000000F08BF0846704790EA010F1CBF002064
:100C3000704712F07F4F04D1400028BF40F00040C1
:100C4000704712F100723CBF00F50000704700F0E1
:100C5000004343F0FE4040F4000070477FEA226208
:100C600016BF08467FEA23630146420206BF5FEAD9
:100C7000412390EA010F40F4800070474FF00003D9
:100C800004E000BF10F0004348BF40425FEA000CA0
:100C900008BF704743F0964301464FF000001CE048
:100CA00050EA010208BF70474FF000030AE000BF9E
:100CB00050EA010208BF704711F0004302D54042DC
:100CC00061EB41015FEA010C02BF8446014600204E
:100CD00043F0B64308BFA3F18053A3F50003BCFA69
:100CE0008CF2083AA3EBC25310DB01FA02FC634416
:100CF00000FA02FCC2F12002BCF1004F20FA02F21D
:100D000043EB020008BF20F00100704702F120020F
:100D100001FA02FCC2F1200250EA4C0021FA02F270
:100D200043EB020008BF20EADC7070474FF0FF0C75
:100D30001CEAD0521EBF1CEAD15392EA0C0F93EA70
:100D40000C0F6FD01A4480EA010C400218BF5FEA12
:100D500041211ED04FF0006343EA501043EA511185
:100D6000A0FB01310CF00040B1F5000F3EBF49007F
:100D700041EAD3715B0040EA010062F17F02FD2A83
:100D80001DD8B3F1004F40EBC25008BF20F0010066
:100D9000704790F0000F0CF0004C08BF49024CEA7D
:100DA000502040EA51207F3AC2BFD2F1FF0340EA0F
:100DB000C250704740F400004FF00003013A5DDC80
:100DC00012F1190FDCBF00F000407047C2F10002C1
:100DD000410021FA02F1C2F1200200FA02FC5FEAAE
:100DE000310040F1000053EA4C0308BF20EADC70F8
:100DF000704792F0000F00F0004C02BF400010F46A
:100E0000000F013AF9D040EA0C0093F0000F01F016
:100E1000004C02BF490011F4000F013BF9D041EA38
:100E20000C018FE70CEAD15392EA0C0F18BF93EA3A
:100E30000C0F0AD030F0004C18BF31F0004CD8D164
:100E400080EA010000F00040704790F0000F17BFEB
:100E500090F0004F084691F0000F91F0004F14D031
:100E600092EA0C0F01D142020FD193EA0C0F03D189
:100E70004B0218BF084608D180EA010000F000408C
:100E800040F0FE4040F40000704740F0FE4040F467
:100E9000400070474FF0FF0C1CEAD0521EBF1CEA06
:100EA000D15392EA0C0F93EA0C0F69D0A2EB030224
:100EB00080EA010C49024FEA402037D04FF08053BE
:100EC00043EA111143EA10130CF000408B4238BF83
:100ED0005B0042F17D024FF4000C8B4224BF5B1A91
:100EE00040EA0C00B3EB510F24BFA3EB510340EADF
:100EF0005C00B3EB910F24BFA3EB910340EA9C008D
:100F0000B3EBD10F24BFA3EBD10340EADC001B01FC
:100F100018BF5FEA1C1CE0D1FD2A3FF650AF8B42A0
:100F200040EBC25008BF20F0010070470CF0004CAD
:100F30004CEA50207F32C2BFD2F1FF0340EAC250D8
:100F4000704740F400004FF00003013A37E792F099
:100F5000000F00F0004C02BF400010F4000F013AF7
:100F6000F9D040EA0C0093F0000F01F0004C02BFF2
:100F7000490011F4000F013BF9D041EA0C0195E75B
:100F80000CEAD15392EA0C0F08D142027FF47DAFF4
:100F900093EA0C0F7FF470AF084676E793EA0C0FE4
:100FA00004D14B023FF44CAF08466EE730F0004CE2
:100FB00018BF31F0004CCAD130F000427FF45CAF72
:100FC00031F000437FF43CAF5FE700BF4FF0FF3CE0
:100FD00006E000BF4FF0010C02E000BF4FF0010C33
:100FE0004DF804CD4FEA40024FEA41037FEA226CFC
:100FF00018BF7FEA236C11D001B052EA530C18BF1E
:1010000090EA010F58BFB2EB030088BFC81738BF82
:101010006FEAE17018BF40F0010070477FEA226C70
:1010200002D15FEA402C05D17FEA236CE4D15FEA6C
:10103000412CE1D05DF8040B704700BF84460846A0
:101040006146FFE70FB5FFF7C9FF002848BF10F161
:10105000000F0FBD4DF808EDFFF7F4FF0CBF0120A6
:1010600000205DF808FB00BF4DF808EDFFF7EAFF30
:1010700034BF012000205DF808FB00BF4DF808EDEB
:10108000FFF7E0FF94BF012000205DF808FB00BFE0
:101090004DF808EDFFF7D2FF94BF012000205DF866
:1010A00008FB00BF4DF808EDFFF7C8FF34BF012073
:1010B00000205DF808FB00BF4FEA40024FEA410301
:1010C0007FEA226C02D15FEA402C08D17FEA236CD0
:1010D00002D15FEA412C02D14FF0000070474FF07F
:1010E000010070474FEA4002B2F1FE4F0FD34FF0BC
:1010F0009E03B3EB12620DD94FEA002343F0004385
:1011000010F0004F23FA02F018BF404270474FF032
:101110000000704712F1610F01D1420205D110F0B9
:10112000004008BF6FF0004070474FF0000070476C
:1011300042000ED2B2F1FE4F0BD34FF09E03B3EB41
:10114000126209D44FEA002343F0004323FA02F06D
:1011500070474FF00000704712F1610F01D1420259
:1011600002D14FF0FF3070474FF00000704700BFD2
:1011700040F0BF60024B40F40030D860704700BFC1
:1011800000ED00E010B5C2780378E2B1124AD168F0
:101190004278C943C1F30221C1F10404A2400F24E3
:1011A000807824FA01F101400A430C491201C81861
:1011B000D2B280F8002303F01F005A0901238340B4
:1011C00041F8223010BD01215A0903F01F0301FA32
:1011D00003F320320149F3E700ED00E000E100E015
:1011E000827930B50168037942B3CC43184A03F1E0
:1011F0008043156803F582332540156055682C40FF
:1012000054601C682143196003689468D9430C40FA
:101210009460D4682140D1604179102906D1916849
:1012200019439160D1680B43D36030BD01F1804216
:1012300002F5823211680B43136030BD03F1804325
:1012400003F582331A6822EA0101196030BD00BF3C
:1012500000040140054B1A685B69034004D0024258
:1012600014BF012000207047184670470004014059
:10127000014B5861704700BF00040140034B044A12
:101280005A6002F188325A60704700BF0020024065
:1012900023016745FFF7F2BF084BDA68D10709D48D
:1012A000DA68520708D4DB6813F0100F14BF03206C
:1012B0000420704701207047022070470020024040
:1012C00010B50446FFF7E8FF012806D10CB9052048
:1012D00010BDFFF7E1FF013CF6E7002C08BF052039
:1012E00010BD000070B505464FF400500E46FFF7E4
:1012F000E7FF04280FD1084C4FF40050236943F056
:10130000010323612E80FFF7DBFF236923F0010334
:10131000DB04DB0C236170BD0020024038B50546BC
:101320004FF43020FFF7CCFF042813D10A4C4FF4C0
:101330003020236943F0020323616561236943F090
:1013400040032361FFF7BCFF236923F00203DB04A2
:10135000DB0C236138BD00BF00200240CB782DE9B3
:10136000F041DA0648BF8A780E8803F00F0548BFBF
:10137000154316F0FF0F1AD000214FF0010E4FF069
:101380000F0C02680EFA01F737EA06040BD18C0045
:101390000CFA04F822EA080205FA04F4282B42EABF
:1013A000040225D1476101310829EBD10260FF2EEB
:1013B0001CD900214FF0010E4FF00F0C426801F1D3
:1013C00008040EFA04F434EA06070BD18F000CFA75
:1013D00007F822EA080205FA07F7282B42EA070273
:1013E0000AD1446101310829E9D14260BDE8F081A8
:1013F000482B08BF0761D6E7482B08BF0461F1E717
:101400004FF6FF730380022383700423C370704779
:101410008368194214BF012000207047806880B2A1
:101420007047C06880B27047416170470AB101617E
:10143000704741617047C160704741F480338361F8
:101440008161836183698369704700000028164ABF
:1014500030B500F44015B4BFD3695368B5F5401FEB
:1014600084B210D1556823F0706325F07065556023
:1014700019B1420D1201944023430B4A0028B4BF16
:10148000D361536030BDC2024DBF0322420D120131
:10149000C0F303454CBFAA4004FA02F223EA020358
:1014A00043F07063E4E700BF0000014010B50F2473
:1014B00001F0030301F0FC0101F1804101F58031ED
:1014C0008A689B009C4022EA04028A608A689840ED
:1014D0001043886010BD0000034A536823F0F003F6
:1014E00018435060704700BF00100240034A536821
:1014F00023F4E06318435060704700BF00100240BF
:10150000034A536823F4605343EAC00050607047B5
:1015100000100240014B1860704700BFD8004242E3
:101520001C4A10B5536803F00C03042B01D0082BA0
:101530001FD0194B03605368184CC3F30313E15CCD
:101540000368CB4043605168C1F30221615C23FA18
:1015500001F181605168C1F3C221615CCB40C3607D
:1015600052680F49C2F381328A5CB3FBF2F3036124
:1015700010BD53685168C3F38343CC0303F10203E6
:1015800002D408494B43D5E751688903F9D402498D
:10159000F8E700BF0010024000127A0004000020AB
:1015A0000000002000093D00044B9A6911B110436E
:1015B0009861704722EA0000FAE700BF001002407D
:1015C000044BDA6911B11043D861704722EA000078
:1015D000FAE700BF00100240224A038890429BB203
:1015E00012D002F5006290420ED0B0F1804F0BD0C5
:1015F000A2F59832904207D002F58062904203D063
:1016000002F58062904203D14A8823F070031343AD
:10161000154A904208D002F5806290421FBF23F421
:101620004073CA889BB2134303808B8883850B88E1
:1016300003850C4B98420FD003F5006398420BD002
:1016400003F54063984207D003F58063984203D0C6
:1016500003F58063984201D10B7A038601238382CC
:10166000704700BF002C014000100040038C70B593
:1016700023F480531B041B0C0384038C8488828B0B
:101680000D8822F4E6421204120C42EA052223F4E9
:1016900000530D894E881B0435431B0C43EA053368
:1016A0000B4DA4B2A84292B29BB203D005F50065DF
:1016B000A84205D18D8924F4804444EA8514A4B25B
:1016C00084808283CA88A0F84020038470BD00BF54
:1016D000002C0140038821B19BB243F00103038039
:1016E000704723F001031B041B0CF8E783899BB2AE
:1016F00012B119438181704723EA0101FAE7FFF72C
:10170000F5BF038923F007031B041B0C03817047FB
:10171000038821B19BB243F080030380704723F01C
:1017200080031B041B0CF8E7838B23F400631B046A
:101730001B0C43EA012189B281837047038923F09E
:1017400080031B041B0C038103899BB21943018195
:101750007047A0F840107047C94389B201827047B2
:1017600030B50D460446038A8A899BB2C98823F4A2
:1017700040530B4303828389A98823F4B05323F099
:101780000C031B041B0C0B43298987B00B4369898D
:101790000B439BB28381838A9BB223F44073134330
:1017A000838201A8FFF7BCFE174A039B0499944269
:1017B00018BF19461922A3894A4313F4004F2B6816
:1017C0004FF0640514BF5B009B00B2FBF3F1B1FB6B
:1017D000F5F3A2891801120405FB13130BD5DA00E7
:1017E0003232B2FBF5F202F0070242EA00039BB28A
:1017F000238107B030BD1B013233B3FBF5F303F097
:101800000F030343F3E700BF00380140838921B190
:101810009BB243F400538381704723F400531B04AD
:101820001B0CF8E701F01F0310B5C1F342140121AE
:10183000012C01FA03F105D10C3003683AB11943C8
:10184000016010BD022C0CBF10301430F5E723EA04
:101850000101F5E7C1F3080181807047038819424F
:1018600014BF01200020704710B50748FFF7D9FDCD
:10187000C0F3C0040448FFF7D4FDC30648BF44F0DA
:101880000204204610BD00BF000C014010B5064CFC
:10189000002220460821FFF7C9FD2046BDE8104080
:1018A00000221021FFF7C2BD000C014037B5012115
:1018B0000820FFF779FE02238DF806301823102543
:1018C0000B4C02A921F8043D20468DF80750FFF784
:1018D00045FD204600220821FFF7A8FD00222946E9
:1018E0002046FFF7A3FDFFF7D1FF03B030BD00BFD7
:1018F000000C014038B50C4C0546627822B920B97D
:10190000FFF7C4FF0023E37238BD420604D501226D
:1019100008210648FFF78AFD2B06F3D50122102186
:101920000248FFF783FDEDE7880D0020000C014021
:1019300010B5064B04461B78022B06D002F0C4FEFD
:101940002046BDE81040FFF7D5BF10BD880D002030
:101950002DE9F0411148FFF7E1FC04281AD14FF6B8
:10196000FF760E4DDFF844800D4F35F808100D4B13
:10197000B1422B4410D0FC182846FFF7B3FC234695
:101980001988B14202D0A81CFFF7ACFC064B043505
:101990009D42EAD1BDE8F0813B44F1E700FC01083B
:1019A000C60800200204FEF700000208C60CFE175D
:1019B0000C4A30B510460C4B0C4C1D7803F17841A5
:1019C0000133A1F5FE31A3425554F6D113780A2B09
:1019D00006D00023FF22C2540133B3F5806FFAD141
:1019E00030BD00BFC608002000FC0108000002084E
:1019F000014B185C704700BFC6080020014B19540A
:101A0000704700BFC60800200023F0B40A4C451EF2
:101A100025448F18B94204D120448354F0BCFFF709
:101A200097BF3BB9DB0911F8016B3344DBB205F812
:101A3000016FEFE70123F6E7C60800200023F0B5A9
:101A40000B4C4D1E25448718B84205D12144885CB3
:101A5000C31A58425841F0BD15F8016F2BB9DB0984
:101A60003344DBB200F8016BEEE70123F8E700BF77
:101A7000C608002008B500216022074806F0B5FE20
:101A80000649002003F09FFE20B9BDE8084007206A
:101A900002F04ABF08BD00BFC80C0020FC0C0020AB
:101AA0000149024805F07ABABC0D0020E80C00207C
:101AB0002DE9F04F5C2299B081460021A54806F03F
:101AC00094FEA54BA54A984603F108051C4603CC95
:101AD000AC4210605160234602F10802F6D1206842
:101AE000002510602379137199F80030242B40F001
:101AF0005D870123974A9570537003221D468DF828
:101B00003B20002426460994089406949DF83B3017
:101B100019F803B0BBF1000F1ED126B1069B002BB4
:101B200008BF02230693A10605D58A4BDA6A8C4BBF
:101B30009A4200F32087EA0740F1E081E30740F191
:101B40002387844FFB78012B40F0E6813869854973
:101B5000FFF7ECF83861DFE1ABF1410A5FFA8AF296
:101B6000192A00F2F68601330FAA0DF13B0148460F
:101B70008DF83B3001F006FD002800F0ED860F9B4C
:101B80001846079306F098FFFFF7D2FAC7B2384617
:101B9000FFF778F8079B01461846FEF7BDFF72492C
:101BA000FFF7C4F806F05CFFBBF1470F82B222D00A
:101BB000BBF14D0F00F0DC80BAF1190F4AD8DFE815
:101BC0001AF0170134014900490049003B0149005E
:101BD00049004001490152015B014900600149008F
:101BE00067016C01710175017A01490049004900E2
:101BF00088018F019601282F00F0A58032D8132F7D
:101C000023D8112F79D2042F09D06FD30A2F21D1D5
:101C10002AB9069B002B40F0A286012306934D4B68
:101C200007F0FD011C291F7002D05C2F40F08D8051
:101C30000AB10A2A0ED1384418700023099A1A41B1
:101C4000D20740F1CD8015255EE01C2FE0D003D8EF
:101C5000152F69D9142557E0212F47D0262F45D0BD
:101C60001E2FD4E73D2F6AD01BD8352FD7D011D8DF
:101C70002B2F01D0312FEDD1069B002B40F06F862A
:101C8000312F57D1334B9DF818209A710322082326
:101C90000692D3E73B2FDDD82E4B363FDF71092369
:101CA0002FE05B2F18D85A2F32D2502FD2D129498A
:101CB000262F4F704BD1A2F114039BB21E2BC9D813
:101CC0002A4820FA03F3D807C4D50A23B2FBF3F25B
:101CD000763A4A700123B1E75C2F99D05E2FB9D8CC
:101CE0001C4BC7F15E079F7005230AE0069B002B83
:101CF00040F0358602230693D9E7164B113F5F71FA
:101D00000223002A9AD01725284619B0BDE8F08F83
:101D100022B9104B5A3F1F7103238FE70A2A99D12A
:101D20005A2F97D0042389E70A4BC7F11507DF70B4
:101D30000623E6E70A2A8DD10122064BA5E7002AF1
:101D400088D10A237AE70723DBE70023D9E70123B9
:101D5000D7E700BF280D0020C80C0020290D002067
:101D6000809698003333CB410000C84201041040F4
:101D7000002AC8D1052F0AD8032F1BD3042FA94B43
:101D800021D0052F21D010229A720C2356E7092F5B
:101D90000AD8072FA34B1AD3082F1DD0092F1DD007
:101DA00080225A720D2349E71E2F7FF453AF9D4BBB
:101DB0001F7202E01FB1012FF9D10B233EE703226E
:101DC000984B1A72F9E72022DEE70022DCE70422B2
:101DD00045F48075DA72D8E74022E2E70022E0E7B6
:101DE000012202FA03F3099A13439BB209938DE689
:101DF0000D270F9A8B4B46F008065A6544FA07F3F5
:101E0000DB0700F1B28540F261333B41D80706D5CC
:101E100000210F98FFF728F9002840F0A985012339
:101E200003FA07F73C43A4B270E60F9A7D4B46F0E5
:101E300010069A650E27E1E70F9A7A4B00271A6180
:101E4000DCE7784B0F9A01275A61089B43F00103A6
:101E50000893D3E7734B0F9A02279A61089B43F0CC
:101E600002030893CAE76F4B0F9A0327DA61089BB6
:101E700043F004030893C1E76A4B83F828700427F2
:101E8000BCE70F98FFF72EF9664B0527D862B5E738
:101E90000F9A644B06271A63B0E70F9A614B5A6397
:101EA0000727ABE70F9A5F4BDA63F9E70F9A5D4BB1
:101EB00008271A64A2E75C490F98FFF7F3F8002897
:101EC00040F050850222574B83F844701A7309275B
:101ED00094E70F9A534B46F001069A640A278DE760
:101EE0000F9A504B46F00206DA640B2786E70F9AEA
:101EF0004C4B46F004061A650C277FE7494FBB7828
:101F0000012B18D1069B022B06D17B78502B03D0D6
:101F100013B1E70740F1388514F4807F08BFD8F883
:101F20001030404F08BF3B643B78042B11D1610651
:101F30000CD41C25E8E698F80130002BECD1E00722
:101F40003FF500AED8F814303B61E5E724F04004DB
:101F5000A4B27B79002B42D0012B0CBF01230023BC
:101F60000C930CBF002302230B930CBF022301230D
:101F70000A93FB78012B37D0069B032B05D1BB7945
:101F8000012B02D1042E40F0F984DFF8A4E013AF56
:101F9000BEE80F000FC7DEF800303B60099B214F01
:101FA00013F4007F39D197F800A0BAF10A0F50D08E
:101FB000BAF15C0F00F0EF80069B032B40F020810C
:101FC000BAF11E0F00F05C81BAF1350F00F0738199
:101FD000BAF11C0F40F00C811449062052E1022294
:101FE0000C9201220B92C3E74FF00009DFF844A0E6
:101FF000DFF844B046FA09F3DA0706D5DAF800004C
:102000005946FEF793FECAF8000009F10109B9F13B
:10201000050F0AF1040AEDD1AEE7F87906280DD9CB
:102020001D2571E6280D002000007F433C0D002097
:10203000FC0C0020700D00203333CB4198F80630A3
:102040008342B0D013A903F0BEFB0028ABD1072513
:102050005AE60EB91A2557E614F0500F3FF469AF4F
:10206000386B06F029FDFFF763F8C0B20628D7D811
:1020700097F82830142B05D0022B7FF4EBAD230604
:102080003FF5E8AD24F05004A4B200287CD001381C
:10209000C3B20793A749079803F095FB0028D6D051
:1020A0004FF0000B97F82830DFF888A2A24F0D936D
:1020B000D7F85C80AAF11409203746FA0BF3D90748
:1020C00014D50D9B142B61D1B96A3868FEF724FD35
:1020D000DAF83410FEF720FDBBF1020FCAF8000059
:1020E00004D14146FEF718FDC9F81C000BF1010BA5
:1020F000BBF1050F0AF1040A07F10407DDD18F4B8C
:102100005F789A46502F40F0DC80002E40F03984F2
:1021100015F00103069A15BF24F0210424F4487435
:10212000A4B224F0010412B124F4F844A4B2002CA7
:1021300040F03684109411941294002B00F03882F1
:10214000099B23F04903002B40F02D847B4B1B7827
:10215000352B02D0002B40F02684774C7749236939
:10216000227A1193637A10A813438DF8483000F057
:102170002BFC054600287FF4C7AD714E20340FCEEE
:102180000FC433682360BFE5FB7982E7DAF83430A7
:10219000CAF80030AAE7002E3FF45CAF0027D8F859
:1021A0005C30DFF89CB1DFF89C8107930DF14C099E
:1021B000ABF1480A46FA07F2D2071CD559F82710A6
:1021C000D8F80000FEF7A8FCDBF80010FEF7A4FC2E
:1021D000022FCBF8000004D10799FEF79DFCCAF846
:1021E00050000137052F08F104080BF1040BE1D171
:1021F0000023079383E7D8F82820CBF80020F0E7E6
:10220000002E3FF4DDAE4FF0000B3B794C4F0793AF
:10221000494BA7F14809DA6D03F120080D9246FAFF
:102220000BF3DB070CD4D8F800303B600BF1010B4B
:10223000BBF1050F08F1040807F10407EFD1BFE671
:10224000BAF1350FF2D0079B9BB913ABD8F8281021
:1022500053F82B00FEF762FC3968FEF75FFCBBF118
:10226000020F3860E2D10D99FEF758FCC9F8500012
:10227000DCE73868D8F80010FEF750FC3860D5E786
:1022800007202C4903F09FFA00283FF4E0AE16B96E
:102290000796069633E700232849274846FA03F2B3
:1022A000D70704D49A0057180244126A7A6101339E
:1022B000052BF3D19CE7214B5B78012B98D91E2588
:1022C00022E5069A022A7FF423AF2FB91346002E87
:1022D00008BF002306931BE700211869FEF7BAFE2A
:1022E000002840F051838C2F12D009D8022F2BD018
:1022F000032F2BD0012F7FF40BAF002E069BE7E7B7
:102300008E2F05D002D38F2F7FF402AF45F010053A
:102310007237FFB2012F98BF45F00805002E3FF439
:1023200099AE14220649074806F050FA002842D018
:10233000EEE600BF3C0D0020C80C0020280D002058
:10234000700D0020E80C002045F00405002E3FF43D
:1023500081AE01230A9A03FA02F90B9A934049EAE3
:10236000030916EA090F00F012830A9B0A9ADFF8A4
:1023700034B2123308325BF822105AF82300FEF709
:10238000CBFB0B9B0B9A1233083207465BF82210EB
:102390005AF82300FEF7C0FB14F08003804600F0DB
:1023A0008F8024F0800414227A490BF12000A4B21B
:1023B00006F00CFA08B92125A6E49AF80330012B9F
:1023C00006D1DAF83C007449FEF7B0FCCAF83C00CC
:1023D000DFF8D4A14FF08141DAF83C904846FEF78F
:1023E000A5FC4946FEF7A2FC394681463846FEF771
:1023F0009DFC01464846FEF78FFB4146814640461C
:10240000FEF794FC01464846FEF786FB0021814614
:10241000FEF72AFE002840F0BD824846FDF7FCFF8B
:1024200006F05EFB834689463846414601F046F990
:10243000FDF7F2FF09F100490B46024649465846AE
:10244000FEF768F9FEF714FB9AF80130DFF858A19F
:10245000032BDAF83CB081464FF0000108BF00F1D1
:1024600000495846FEF700FE28B10BF1004B09F178
:102470000049CAF83CB00A9B4146484603F1040BA8
:10248000FEF754FC01463846FEF746FB4FF07C5100
:10249000FEF74CFC0B9B0AEB8B0B0433CBF80400D0
:1024A000394648460AEB830AFEF740FC4146FEF7F0
:1024B00035FB4FF07C51FEF739FCCAF8040027E6E3
:1024C000089A19EA020F00F068829AF8032024F0B3
:1024D0000E04012AA4B244D00B9BDFF8CCA003F178
:1024E00004090AEB8909D9F804104046FEF714FBE9
:1024F00083460A9B384603F104080AEB8808D8F89B
:102500000410FEF709FB594601F0D8F8D9F8041079
:102510000746D8F8040001F0D1F80146CAF83C009B
:1025200080463846FEF7F8FA20F000471B49384647
:10253000FEF7B8FD00283FF4EBAD4FF07C51384674
:10254000FEF7B0FD00287FF436AF15494046FEF790
:10255000EDFB01463846FEF7A5FD00287FF42BAFC2
:10256000D6E59946DFF844A0DFF82CB0089B43FA83
:1025700009F3D90706D5DAF800005946FEF7D6FB6D
:10258000CAF8000009F10109B9F1050F0AF1040ABE
:10259000ECD1A1E7700D00203333CB410AD7A33B28
:1025A0006F12833AC80C0020280D00203C0D00203B
:1025B000AC4BAD4CB3F86A30AC4F13F0020F0ED0F9
:1025C0007B78013B022B88BF45F04005002E00F0D0
:1025D000DD80069B022B40F0D98045F08005FB6A28
:1025E000E361BB78637013B108238DF848303B6911
:1025F000D7F840806361414620691093FEF72AFDB9
:1026000005F0400608B1AA060BD5607A38B12B0652
:1026100005D4002E00F0CE80002103F083FC3B6C3B
:1026200023610EB92369119397F84430B87A237661
:10263000637A834204D0119903F074FCBB7A63720D
:102640009DF84830627A787A13438DF84830237ABF
:10265000834206D0FFF76CF97B7A002B40F0AC8008
:1026600023729DF84830227AE80543EA02038DF888
:10267000483015D5F87AA37A834200F0A08004F0A0
:10268000A9FFFB7A012B1CBFA27A1343A3729DF80A
:102690004830A27A25F480751343ADB28DF84830E6
:1026A000387BE37A834200F0988004F0A3FF3B7B01
:1026B000002B40F08F80E3729DF84830E27A13439C
:1026C0008DF848303B78042B02D1386B00F092FE35
:1026D0007B792371FB78A370069B032B0DD1BB790B
:1026E00063710BB900233B653E6DE06D3146FEF72B
:1026F000B1FC10B9E66504F039FCFB79A2799A4285
:102700000BD05B4E0DF14C0EA371BEE80F000FC64F
:10271000DEF80030336004F029FC3B79E3703B784D
:10272000262B00F0998060D81C2B7BD01E2B79D0F3
:102730000A2B63D07B78502B23700FD0069A022A85
:102740000CD1012B40F0A88010A94A4800F070FC81
:10275000494D484E0FCE0FC533682B603D7AE57169
:10276000002D3FF4D1AA01F0AFFFE379032B434BD7
:1027700040F0C4801B78022B04D0082004F04EFCEB
:1027800001F038FE0025E571FFF7BEBA637A102B21
:102790007FF425AF2378013B022B05F0400305D8D9
:1027A000002B3FF41CAF45F0200518E7002B7FF409
:1027B00016AFF8E7414630E7227A134350E759074E
:1027C0007FF565AF184604F005FF0423A3720123CB
:1027D000FB725CE7E27A13436DE79A077FF56CAF13
:1027E000184604F007FF002365E75C2B4AD0662BF0
:1027F0004CD0282B9ED1204907202FE02049079854
:1028000002F0F4FEA379079A934293D1184EDFF8B1
:1028100070E0BEE80F000FC6DEF80030336004F051
:10282000A5FB87E79DF8483043F001038DF8483059
:10283000069B1BB110A90F4800F0FAFB10A9104825
:1028400000F0F6FB0C4EDFF838E0BEE80F000FC6D4
:10285000DEF8003033606DE70620074902F0C6FE5F
:1028600068E700BF50100020C80C0020280D002091
:10287000FC0C0020700D0020E80C0020880D0020CA
:102880003C0D00204B4EDFF838E1C2E71422002156
:10289000484805F0AAFFC2E733B99DF8483043F035
:1028A00001038DF848304FE7023B012B12D80C9BF7
:1028B000C5F3800503930B9B049502930A9B3E4A44
:1028C0000193FB6B10A900933C4B03F1340000F023
:1028D000E3FB3DE79DF84830EAB243F0040310A95A
:1028E00037488DF8483000F0BDFD00283FF430AF88
:1028F00001287FF433AFFFF7D3F82FE764220025D8
:102900000126DA711A725A721B782670022B257111
:10291000E5706570A57165722572A67215D029499A
:10292000284602F050FF00283FF491AB04F01EFB54
:102930000021284603F0B4FA2846FEF7DBFF3046B4
:1029400004F02AFE284604F0FFFD082002F014F8E7
:1029500018E70125FFF7D8B90225FFF7D5B91825E3
:10296000FFF7D2B92625FFF7CFB91925FFF7CCB964
:102970000425FFF7C9B91B25FFF7C6B92525FFF7C1
:10298000C3B91F25FFF7C0B91625FFF7BDB920252C
:10299000FFF7BAB92225FFF7B7B92325FFF7B4B976
:1029A0002425FFF7B1B91025FFF7AEB98DF83B50DC
:1029B000FFF7A7B8100D0020E80C00203C0D002008
:1029C000700D0020FC0C002038B50B690546036033
:1029D000037A01F1480443F004030372104BB3F887
:1029E0006A3013F0200F10D129460E4D204600F01A
:1029F0001FFB2C7884B900F0CFFF68B120232B7027
:102A000003F060FD03F0CAFA07E0204604F0D4FAB0
:102A10000028E9D00F2400E00024204638BD00BF84
:102A200050100020880D002004F0BCB94FF48072D3
:102A3000014BC3F88420704700E100E038B510482E
:102A4000FEF7ECFC03460F4AB2F86A2052065CBF60
:102A500080F47C439BB28BB10022012410460A49CA
:102A600051F822502B421CBF04FA02F5284302F110
:102A7000010218BFC0B2052AF2D138BD184638BDD0
:102A8000000C0140501000204CA6000810B54FF477
:102A90008060FEF7DFFB18B14FF48060FEF7E8FBC3
:102AA0004FF48050FEF7D6FB18B14FF48050FEF77C
:102AB000DFFB4FF40060FEF7CDFB18B14FF4006070
:102AC000FEF7D6FB4FF40050FEF7C4FB18B14FF4ED
:102AD0000050FEF7CDFB4FF48040FEF7BBFB18B172
:102AE0004FF48040FEF7C4FB144BB3F86A30DB05AB
:102AF00014D400244FF48072114BC3F88421114B7D
:102B00001B78012B18D0104B1B78ABB900F010FDCF
:102B100084B10A20BDE8104004F00EBC4FF4004020
:102B2000FEF798FB0028E4D04FF40040FEF7A0FB2E
:102B30000124DFE70120EDE710BD00BF50100020A9
:102B400000E100E0880D0020D00D00202DE9F04FBD
:102B5000744B8FB05C7882469846002C40F0A88079
:102B600006234FF00009704D704E714F0894069483
:102B700007948DF8203055F8242004A90A554AFA04
:102B800004F2D0074FEA84030AD533443946D86BA0
:102B9000FEF7CCF849468346FEF766FA00B9D946F7
:102BA0000134052CE7D104230127604D0193D5F8AA
:102BB00074B009AB18465F49039304F0EFF90020A5
:102BC0000646014695F86C3009F1004E0293039BCE
:102BD0004AFA01FC1CF0010F18D00024554A0130BC
:102BE00042F82140029AC0B242FA01FC1CF0010FE7
:102BF00003D027B143F821E003E0002FFAD043F8D7
:102C0000219004AA12F801C046EA0C0601310529F8
:102C1000DED1FEF733F805F0B7FF88F8066001460D
:102C20005846FEF783F806A9069009A800F060FF51
:102C3000042388F8043003F045FC03F0AFF9DFF813
:102C4000009187B1FFF7FAFE002304AAD25C32425A
:102C500004D040FA03F1C90748BF96430133052B5E
:102C6000F3D188F8066003F02DFC99F8003013F0DA
:102C7000340F4BD099F80060F6B2F30602D5062067
:102C800004F05AFBB40602D5072004F055FB002FD0
:102C900044D1FFF7D3FE1AEA000F02D0082004F057
:102CA0004BFB254B1B7833B100F042FC01F0A2FB3B
:102CB0000FB0BDE8F08F042004F034FB03F096FB66
:102CC000B5F8780000F0F0FC87F001060FBB1B4957
:102CD000E86FFEF72BF88146D5F870B0019B3746B8
:102CE0005C1E14F0FF0301937FF463AF1C46224681
:102CF000104B4AFA04F1C90748BF43F824200134B5
:102D0000052CF6D1002388F80430D1E7F00698D1DD
:102D1000D4E7D5F87C90D5F874B0DFE77307C0D559
:102D20000920BCE7880D002060A600085010002094
:102D30000000C0BFBC0D0020D00D00200000A0404E
:102D4000A50D002010B504F037F9C0B101220C4CDC
:102D50002078E270082808D000F0EAFB022004F096
:102D6000EBFABDE8104001F045BB04F057F901F063
:102D700041FB63781BB92378002BF8D1ECE710BD39
:102D8000880D0020F0B5074687B04FF44070FEF77D
:102D9000EFF900240125252301A88DF804308DF8D2
:102DA00005408DF80750FEF7EDF9294644F205007D
:102DB000FEF7FAFB4FF40073ADF8003018238DF8DE
:102DC00003300323194E694630468DF80230FEF772
:102DD000C5FA4FF48063ADF80030042369463046ED
:102DE0008DF80330FEF7BAFA0C23ADF80C40ADF8BD
:102DF0000E40ADF81040ADF814400D4CADF8123057
:102E0000A38902979BB243F00C03A38102A9204639
:102E1000FEF7A6FC2A46204640F22551FEF702FDA9
:102E200029462046FEF7F2FC07B0F0BD000801403D
:102E3000003801404FF47A72074B5A6000229A60C2
:102E400001221A601A6802F00112012AFAD0002247
:102E50001A609A60704700BF10E000E010B5074CA0
:102E60004FF4005122780648FEF7E0FA237813F178
:102E7000FF3318BF0123237010BD00BF14000020D2
:102E8000001001402DE9F34101215848FEF7DEFA18
:102E9000574A00209369574E43F0010393614FF066
:102EA0008062554B00245A60FEF716FB4FF4806099
:102EB000FEF71CFB0020FEF723FB01211020FEF78C
:102EC00073FB02238DF8063010238DF807304FF482
:102ED0000053374602A921F8043D4848FEF73EFA60
:102EE0004FF4E130FFF74EFF05F008FA05F011FA54
:102EF00004F0A0FFFEF7CEF9FEF75AFD404ADFF8D6
:102F0000FC80136823F00403136002F0A5F902F0BB
:102F1000CDFD03F0EFFE03F045FF002002F0F2FDCF
:102F200014220021374805F060FC34701C22002177
:102F30003846357805F059FC6423142200213248C4
:102F40003570F3713372737205F04FFC2F4B304DB7
:102F50001C70304B1C70304B1C70304B1C70304B55
:102F60001C70304B1C70304B1C7002F01FFBFEF7C6
:102F700081FD95F8800002F0C5FD95F8800002F013
:102F800095FD04F099FAFEF791FC03F00BFF01F0B8
:102F90003DF800F0D1FC03F029FA00F00DFFFEF738
:102FA0007FFD4FF480414046FEF732FA012812D0EF
:102FB0001E4D10212846FEF751FC80B94FF4FA70DF
:102FC00000F072FBFFF74AFFF3E740F2DC5000F03D
:102FD0006BFBFFF743FF05F0A3FB0028F5D001F0E2
:102FE0000FFDFFF73BFF01F0DBFA9FE70004300025
:102FF00000100240880D0020000001400010014038
:1030000010E000E0BC0D0020A80D0020A60D00205F
:1030100050100020D10D0020840D0020A50D0020AF
:10302000D00D0020850D0020A40D002000380140A7
:10303000F8B5174C0746B4F86A200D4612F0200F79
:10304000144E04D03378202B01D0FFF77BFE337869
:10305000022B1BD001F0CEF97378BBB900F0C6FC8F
:1030600010B101F009F8F5E72946384600F040FDB7
:1030700060B9B4F86A309A0708D52B7ADB0605D513
:1030800069681020BDE8F84002F04CBFF8BD00BFF1
:1030900050100020880D00202DE9F04F1C4692466C
:1030A0008FB09DF86C309DF8645003939DF870309C
:1030B00054F825700693AB001A440290E31801916E
:1030C00038465AF8251008920993FDF727FD9DF818
:1030D000688004904FEA88030AEB0302E31854F86F
:1030E00028405AF8281020460A920B93FDF716FD47
:1030F000029B0499059053F82500FDF70DFD029BF6
:103100000546059953F82800FDF706FD07F100472D
:10311000834629463846FDF709FE04F100448046FF
:1031200059462046FDF702FE01464046FDF7F6FCF3
:10313000FDF772F98046894638465946FDF7F6FD97
:10314000294683462046FDF7F1FD01465846FDF726
:10315000E3FCFDF761F94B464246189E05F0BEFCC4
:10316000FDF786FC069B0546002B45D0FDF754F97C
:1031700097A3D3E9002380468946FDF727FC48B191
:1031800095A3D3E9002340464946FCF7E5FFFDF748
:103190006FFC0546944B3146D3F85C803046FDF712
:1031A000BDFC4146FDF7B8FC4146FDF7BFFDFDF70C
:1031B00033F905F095FC8046894628464FF07C514E
:1031C000FDF7B4FD3146FDF7B1FD20F00040FDF7FD
:1031D00023F942464B46FDF79DFAFDF749FC05F001
:1031E000FFFBFDF7A5FF86B2CEB9019902980FB09B
:1031F000BDE8F04FFFF71CBFFDF70EF978A3D3E948
:10320000002380468946FDF7D7FB0028C2D072A371
:10321000D3E9002340464946FCF7A0FFB7E7019BEE
:1032200093F8088018F0080F0DD03046FDF72AFDFE
:10323000019B01461868FDF779FD019B28F00808FD
:10324000186083F808803046FDF71CFD8046014673
:103250002846FDF71FFE039B039A0AEB83030693A0
:10326000039B05465AF82310029B4FF0010B53F8BD
:103270002200FDF751FC4146FDF70CFE29460C905B
:103280002846FDF753FD01464FF08040FDF744FC12
:10329000564980462846FDF749FD4FF08141814659
:1032A0004046FDF73BFC01464846FDF73FFD4FF029
:1032B0007C5103904046FDF739FD4FF00008079020
:1032C0001FFA8BF39E4290D9B8F10B0F40D80399A7
:1032D0003846FDF72BFD079981462046FDF726FD70
:1032E00001464846FDF71AFC079981463846FDF726
:1032F0001DFD039907462046FDF718FD0146384697
:10330000FDF70AFC4C46074608F101085FFA88F809
:1033100004993846FDF702FC089B05991860204681
:10332000FDF7FCFB0A9B0C991860069B0BF1010B47
:103330001868FDF7F3FB069B019918605046FFF7EC
:1033400077FE2B4B5B78002BBAD00FB0BDE8F08F27
:103350005846FDF797FC2946FDF7E8FCFDF75CF8B9
:103360008046894605F04AFAFDF782FB4946044645
:10337000404605F0BBFAFDF77BFB099B0B9A1B68E7
:10338000814603F1004319462046D2F800800D9390
:10339000FDF7CCFC414607464846FDF7C7FC014611
:1033A0003846FDF7BBFB0D9B074619464846FDF71F
:1033B000BDFC414681462046FDF7B8FC0146484623
:1033C000FDF7AAFB4FF000080446A1E7AFF3008029
:1033D0008DEDB5A0F7C6A0BE182D4454FB211940B1
:1033E0008DEDB5A0F7C6A03E50100020ABAA2A3E36
:1033F000880D002010B5074B04461B78022B07D020
:1034000001F062F92046BDE81040002100F02AB921
:1034100010BD00BF880D002010B50446FFF706FB65
:10342000B4B12046FFF792FB00F0E4FF0B4B5B7852
:103430006BB9FEF735FB00F0BFFC4FF4F840FDF729
:1034400017FF4FF48072064BC3F884215A6010BDF9
:103450000420FFF77BFB0320E4E700BF880D00207A
:1034600000E100E02DE9F8432D4C0646237889461B
:10347000022B9046274650D001F026F9657815B109
:103480000220BDE8F883C8F3C000657100F0AAFD12
:1034900000F0C6FD40B1042003F04EFF00F0AAFF8B
:1034A000284600F09FFDEBE730464946FFF7C0FD98
:1034B00001231C4E0220337003F0B0FD00F09AFF90
:1034C0007B78002BDCD13B78002BF7D13378012BB4
:1034D00020D118F0100F19D0134C144D0FCD0FC47C
:1034E0002B6823600020307000F07CFD00F082FF2C
:1034F00002F07CFF00F020FA00F05EFC01F096FB89
:103500007879003018BF0120BDE8F883052003F06A
:1035100013FFE7E701237B71E4E70020BDE8F883B0
:10352000880D0020A60D0020A80D0020BC0D002055
:1035300008B5114B1B78DB061DD4102003F06EFD7F
:1035400002F0D0FAFEF7A2F90C4A137813F02C0F10
:1035500003D1127912F0060F0DD0042B09D1084BBC
:103560001B7813B9062003F0E7FEBDE8084002F01F
:1035700053BD0320F7E708BDA50D0020880D0020EE
:10358000D00D00202DE9F84F0B789146C218C35C8E
:1035900006462D2B884618D101275378951C00210B
:1035A0000A460C460846303BDBB2092B19D80132DB
:1035B000D2B2082A10D809B1013C64B200EB8000F5
:1035C00003EB400015F8013BEDE72B2B12BF551C18
:1035D000951C53780027E2E70029F3D1013464B247
:1035E000F0E7FE2B02D109B90121EBE7D2B1FDF7DB
:1035F00045FB00218246FDF72DFD48B9DFF85CB0A0
:10360000631C12DB19D150461349FDF78FFB82462C
:103610000FB10AF1004A0122AD1B013DC9F800A01B
:1036200088F800501046BDE8F88F50465946FDF71F
:103630007DFB0234824664B2E2E7002CE8D0DFF87A
:1036400020B050465946FDF771FB013CE3B282467B
:103650005CB2002BF5D1DBE7CDCCCC3D0AD7233CC7
:103660000000204170B50E460D49FDF75FFB05F0E7
:1036700077F9FDF75DFD0B4D84B27CB16B786BB9CA
:103680003EB900F0B7FE3220013CFFF7D3FBA4B2F5
:10369000F3E700F0FBFCAB789B07F4D570BD00BFEF
:1036A0000000A041880D002010B5044604B910BDEB
:1036B0000120013CFFF7BEFBA4B2F7E738B50D4689
:1036C0000146FDF733FB294604462846FDF72EFB4D
:1036D00001462046FDF722FAFCF79EFE05F000FAAF
:1036E000FDF7C6F938BD2DE9F8430026041F25462D
:1036F000B14600F1100755F8048F49464046FDF7E2
:10370000A9FC40B941464046FDF710FB0146304652
:10371000FDF704FA0646BD42EDD1304605F034FA15
:10372000014606464FF07E50FDF7B4FB0746616840
:103730003846FDF7FBFA44F8040FAC42F7D13046A7
:10374000BDE8F8832DE9F8430746884600244FF08A
:1037500000090D4D58F8246049463046FDF77AFCC3
:1037600060B9314657F82400FDF794FB20F000467D
:1037700029463046FDF796FC00B935460134052C44
:10378000E8D12846BDE8F883FFFF7F7F013010B500
:10379000C4B20C2C04D901F0CDFB102C08BF0024BE
:1037A000204610BD2DE9F74F554F564E97F8008033
:1037B00096F80090B8F1000F08BF4FF0100808F11C
:1037C000FF385FFA88F8C145019767D03C244E4D19
:1037D00004FB085BDBF82410DBF820A00846FDF7AB
:1037E0009DF9DBF82810FDF7A1FA83460146504603
:1037F000FDF73AFC00B9DA46B8F1000F14BF4346B2
:10380000102304FB0854013BDFB2B945C4F81CA0E7
:1038100032D04FF03C093278BA4233D0002FBA464A
:1038200009FB075B08BF10277B1EDFB2374B1A78F6
:10383000BA4201D102F030FE09FB0A5ADAF82080C0
:10384000DAF81C004146FDF705FC98B9DAF82410B7
:103850000846FDF763F9DAF82810FDF767FAE16921
:10386000FDF75CF9044601464046FDF71BFCC0B17C
:10387000CAF81C405C46CEE7244B1B784B4501D16F
:1038800002F00AFE4FF03C08307808FB0057FFF7C3
:103890007DFF0446019B1A78A24205D103B0BDE822
:1038A000F08FCAF81C80E5E708FB0459D7F81CB074
:1038B000D9F81CA058465146FDF7D6FB90B1796A5D
:1038C0000846FDF72BF9B96AFDF730FA5946FDF7BE
:1038D00025F9834601465046FDF7E4FB10B1C9F8CF
:1038E0001CB0347008FB0453196AD869FDF7B2FBA9
:1038F00000B134702046FFF749FF4F460446C9E740
:10390000D4050020D505002014020020D605002093
:1039100000230121044A1370044A1370044A1170F1
:10392000044A1370704700BFD6050020D40500205C
:10393000D7050020D505002008B52C22002103481A
:1039400004F053FFBDE80840FFF7E2BFD8050020B0
:1039500010B5084B084C1B782078834208D0FFF73D
:1039600015FF064B21781A782070914208BF187015
:1039700010BD00BFD4050020D6050020D5050020CD
:103980003C20034B1A78034B00FB0230704700BF0A
:10399000D405002014020020054B1878054B1B7835
:1039A00083421DBF3C22044B02FB003000207047C5
:1039B000D6050020D40500201402002008B5084BCD
:1039C0001878FFF7E3FE074B1B7883421FBF3C22AA
:1039D000054B02FB0030C06908BF002008BD00BFD6
:1039E000D6050020D405002014020020034B1878CF
:1039F000034B1B78C31A584258417047D605002024
:103A0000D705002038B5837E0546DA07446B15D507
:103A1000164B187AFDF736F91549FDF787F9014677
:103A20002046FDF783F904464FF07E512046FDF70E
:103A300039FB08B94FF07E54204638BD5B070BD4E4
:103A40000A4BD879FDF71EF90949FDF76FF90146D0
:103A50002046FDF76BF904462D6B20462946FDF7FD
:103A600021FB0028E0D02C46DEE700BF880D0020B7
:103A70000AD7233C2DE9F843184B194E1C78DFF880
:103A80006C80184F98F80030A34203D1164B9E6209
:103A9000BDE8F8833C2505FB04752846FFF7B2FF17
:103AA000814601463046FDF7DFFAA0B13146304687
:103AB000FDF73CF928623C2505FB0475EE6A286A8F
:103AC0003146FDF7EFFA00B12E622046FFF75EFEA9
:103AD0004E460446D6E749464846E9E7D605002063
:103AE000FFFF7F7F14020020D8050020D4050020AE
:103AF0003C222DE9F04F8A46A14CA24E257899B080
:103B000002FB056901900021484604F06EFE9AF818
:103B10000830DAF8042013F0020F14BF9A4F9B4FBD
:103B2000009489F81A30C9F8382009AC0FCF0FC4B7
:103B30003B68002723603C2303FB056B019BDFF8F8
:103B4000748253F8270058F82710FDF7EFF8FCF7B8
:103B500063FC04F089FE09A951F8271004AB43F86F
:103B60002700401A80EAE074A4EBE07449F827408B
:103B7000DBF8141023468C4238BF0B46CBF81430C8
:103B80000393FDF77FF858F82710FDF783F90EAC83
:103B900044F827000021FDF767FACDF80880039B61
:103BA00038B17B4ABBF8181052F827200A43ABF80B
:103BB00018200137052FC1D1002B00F0DD804FF018
:103BC0003C082046FFF78FFD08FB05682146C8F832
:103BD00028007048FFF7B6FD2146C8F824006E485B
:103BE000FFF7B0FD98F81A70C8F83000F9074FD504
:103BF000C8F83400009B4FF0000A1A78674B1B7816
:103C00009A4202D017F002074DD03C2303FB056314
:103C1000C3F81CA0C3F82CA03C2707FB0567BB7E9C
:103C20009B0733D44846FFF7EDFEDFF860818146FD
:103C3000D8F828A05146FDF735FA002800F0998001
:103C400051465046FDF772F83C2303FB0565EE6ACA
:103C500038623146286AFDF725FA00B12E62504DD0
:103C60000FCCC8F828900FC523682C4604AD44F843
:103C700024390FCD0FC42B6823604A4C009B207859
:103C80001870FFF783FD2070FFF78CFD012074E0B2
:103C9000DAF800103A07C8F83410ABD5D8F8280085
:103CA000FDF744F8A4E7D0460DF14C0B374B3B44ED
:103CB0005A69E3591046194603930192FDF736F805
:103CC00001464046FCF728FF019A039B80461146B7
:103CD0001846FCF721FF4BF807000437142FE5D1F5
:103CE00031494046FDF7DEF918B13C2303FB05637B
:103CF00090E72E494046FDF7B7F928B13C2303FB76
:103D000005632B4ADA6287E75846FFF7ECFC594611
:103D10002048FFF717FD414682464FF07E50FCF7E2
:103D2000FBFE4FF07C51FDF701F8FCF775FB04F04A
:103D3000D7FEFCF79DFE0746029B5046996DFCF7A7
:103D4000F5FF3946FCF7F2FF394680464FF07E50CA
:103D5000FCF7E2FE01464046FDF79CF800210746CD
:103D6000FDF782F900B100273C2303FB0563DF6206
:103D700052E74946484665E7184619B0BDE8F08F56
:103D8000D405002014020020BC0D0020D80500201E
:103D900038A600087810002064100020D605002006
:103DA000EC050020D7050020EFFF7F3FEFFF7FBF2E
:103DB000FFFF7F7F501000200023054A054850F880
:103DC000231042F823100133052BF8D1704700BFB0
:103DD000D8050020BC0D0020064B1A78064B1B7836
:103DE0009A422CBF03F10F0003F1FF30801AC0B2DA
:103DF000704700BFD4050020D605002008B502F0AA
:103E00004BFB044B1A78044B1A70BDE80840FFF7CF
:103E1000C9BC00BFD6050020D505002010B5441E42
:103E200014F8010F00B910BD01F02EFAF8E763286D
:103E300038B51DD90A24B0FBF4F304FB1304303465
:103E4000E4B2D8B20A25B0FBF5F305FB1305303513
:103E5000EDB2D8B23030C0B201F016FA15B1284632
:103E600001F012FA54B12046BDE8384001F00CBA16
:103E700009284FF00004E5D82546EBE738BD30B5FA
:103E800085B028B9302005B0BDE8304001F0FCB95C
:103E900000230A2104AA5C1C1344B0FBF1F201FBCD
:103EA0001200E4B203F80C0C23461046002AF1D1AC
:103EB00001AA15190CB905B030BD15F8010D013C6A
:103EC0003030C0B201F0E0F9E4B2F3E7F0B50D46EE
:103ED00085B000210446FDF7C7F820B12D2001F080
:103EE000D3F904F100442E46284F012E2AD86B083E
:103EF000C3EBC31305EB430313F0FF0F04D02046BD
:103F00002349FCF713FF04464FF07C512046FCF791
:103F100005FEFDF7E7F800230A22DCB20133C8B939
:103F20003022631E6B44AC421FD306D104AA631C2B
:103F30001444302204F8102CDCB20DEB0406CCB98A
:103F400005B0F0BD20463946FCF7F0FE023E0446BF
:103F5000F6B2CAE704A90C44B0FBF2F102FB11006F
:103F6000303004F8100C0846D7E70134E4B203F807
:103F7000012FD8E7AC4202D12E2001F085F916F8C6
:103F8000010D013C01F080F9E4B2D8E70000C8421D
:103F90000000204108B5074BB3F86A30DB0707D5AE
:103FA0000549FCF7C3FE0421BDE80840FFF78EBFBA
:103FB0000321F9E7501000208B42213D08B5074B43
:103FC000B3F86A1011F0010103D00549FCF7AEFE09
:103FD0000121BDE80840FFF779BF00BF5010002065
:103FE0008B42213D0022074B1A70074AB2F86A2023
:103FF00012065CBF01221A7018B11A7882F0010211
:104000001A707047D20D00205010002008B508200B
:104010000121FDF7C9FABDE808400020FFF7E2BF23
:1040200008B50548FDF7FAF9044B00F001001B78CC
:10403000181A18BF012008BD000C0140D20D002045
:1040400038B5FFF7EDFF68B10022074B074C084D6C
:104050001A700FCD0FC42B68064A2360137843F003
:104060004003137038BD00BFA60D0020A80D00202E
:10407000BC0D0020A50D002008B5FFF78DFC20B178
:10408000BDE80840022002F0C9BF08BDF8B5384BB2
:10409000384C1B78384E03F0FF054BB101272846FA
:1040A000013D277000F056FCBD420CD903F04EF9DB
:1040B000337803F0FF05002B00F0BA80EF060CD533
:1040C00001236370F8BD384600F056FC102003F061
:1040D00029F93378DB06FCD5E8E7EE0704D500F0D4
:1040E00029FF012003F01EF915F0E8075AD02378C4
:1040F0006EB213F0030F47D113F0280F10D0A3783E
:1041000013F0C00F0CD102F0C7F9022323712378FA
:10411000202B05D1002E07DBA37863F07F03A3706B
:1041200023780BB90122A270680605D599065EBFF7
:10413000A27842F04002A2702A0704D513F0E00FE3
:1041400004BF10232370A8061ED5062000F014FC1F
:10415000A378190614D42278402A0FD11A0704D55F
:1041600023F01C0343F00203A3704023237007E0F5
:10417000D00D0020880D0020A50D0020802AF4D14C
:10418000A37843F02003A370002E08DA2378012BD4
:1041900002BFA37843F00503A37080232370384641
:1041A00003F0C0F8A80723D515F0680F1DD12378B8
:1041B000402B07D1A37813F0200203D1D90640F198
:1041C000D48022702378002B00F0D580DF060CD538
:1041D000A278D60709D5102B40F0CD80A37A002B0A
:1041E00000F0C98043F00803A372022003F09AF89C
:1041F00068071DD5237813F0D00F00F0D180E37845
:10420000002B40F0CD8094F90230002BC0F2C88022
:10421000FFF7F4FD2379990748BFA27823F006033E
:1042200044BF42F00102A2702371042003F07AF827
:104230006D4B1B7803F0FF05002B38D003F0A2F87C
:10424000E07915F0010F0CBF03466423AA0748BFAD
:104250000A336F0744BF0A3B9BB22E0744BF0133AA
:104260009BB2E90644BF03F1FF339BB2FF2B28BF8B
:10427000FF239BB20A2B38BF0A23217A15F0200FA7
:1042800014BF64220A4615F0400F18BF322215F001
:10429000800F18BF1922984201D18A4207D0E371DA
:1042A00000232272E372FFF7E5FBFFF7A7FD4F4BF8
:1042B0001B7803F0FF06002B4FD003F06BF8627AF7
:1042C00016F0010F0CBF13466423B70744BF0A332F
:1042D000DBB2750744BF0A3BDBB2300744BF013392
:1042E000DBB2F10644BF03F1FF33DBB2C82B28BFBA
:1042F000C8230A2B38BF0A239A4206D063720023D0
:104300002279E37242F008022271B70607D52378BA
:10431000102B04D1A37A002B5FD10223A37216F0D5
:10432000C00F1AD0237813B113F0180F15D0304FE7
:1043300030063D7A05D529064CBF05F07F0545F0CE
:104340008005720605D56B064CBF05F0BF0545F02C
:1043500040052846FDF7CEFA3D72237813F0FC0F96
:1043600040D0BDE8F84002F0ADB85A0744BF43F072
:104370000803A37026E700232371FFF70DFB58B154
:10438000A37813F0400307D1A3700823237002F031
:1043900099F801F003FE28E70023A370237024E7B7
:1043A00094F90230002B09DA00232371FFF7C4FAD5
:1043B00002F01CF8FDF774FBFFF7FEFCA37813F086
:1043C00020021FBF03F07F0343F00103A3704023CB
:1043D0000ABFA2702370227027E7DD079FD543F044
:1043E00004039BE7F8BD00BF850D0020A40D00204D
:1043F000C80C00202DE9F84F664CFFF747FEA37864
:10440000ABB1FFF7C9FAA0B9634B5D7A1A7A1F699D
:104410001543624EB6F86A309B0702D5202002F0A1
:10442000A7FF4FF000084FF0814AA37823B9BDE8F9
:10443000F88F857E876BECE794F80190B9F1000F57
:10444000F5D1D80715D5217811F0C00067D013F049
:10445000040B11D14146584684F80AB001F020FD02
:104460005846FDF747FAA37823F0020343F004030C
:10447000A370FFF70BFED8E7802912D10B2000F0C4
:104480007BFA0021484601F00BFD4846FDF732FA61
:1044900001F0C2FD63780BB1BDE8F88FFFF7F6FDC0
:1044A000F8E7402906D102F011FD18B9A37823F0EE
:1044B0002003A370A3781907DBD5DFF8DCB09BF8E5
:1044C00009204AB19A0707D4B6F86A309B071CD571
:1044D000237943F0080323719BF808305BB1A3787C
:1044E000980708D405F04000FDF704FA01214FF0C9
:1044F0007E50FFF7B7F8A3789907BAD443F01003BA
:104500000220A37002F08AFDB3E7394605F03000BF
:1045100001F0C6FC01215046FFF7A4F8DCE7A37ABE
:104520004BB39A0708D51C4B5B7AE3B1414601F0C7
:10453000B7FC0123A3729CE713F00C0F99D0164B24
:104540005B7A53B10A2000F017FAB6F86A3099077F
:104550000BD5237943F008032371A37A1A0702D5F8
:10456000022002F05BFD0023E4E7394605F030004D
:1045700001F096FCF1E723791B077FF57AAF394606
:1045800005F0300001F08CFC237923F0080323713F
:104590006FE700BF880D0020C80C002050100020DD
:1045A000454B2DE9F041B3F86A30444E13F0080F43
:1045B00007D0FEF743FA20B101230720337000F043
:1045C000DBF9337813F0810314D0022000F0D4F922
:1045D0000123337000242546394F00F09FFEFF2849
:1045E00017D1FFF749FDFFF705FF7378002BF4D0D3
:1045F000BDE8F081337002F069FC30B1314A1378C4
:1046000043F020031370FFF7F5FE2D4802F094FCF1
:10461000E0E70A2801D00D282BD1FFF7EBFE96F832
:104620000180B8F1000FE3D107F80480FEF716FC13
:1046300015F0010505D00B2000F076F9444625461B
:10464000CBE73C78002CFAD0242C06D1384602F077
:10465000EFFC00F069F92C46F1E7337813F0210400
:1046600001D00920F5E73846FDF722FA00F05CF9A1
:10467000E5E735B12928B0D1AB07AED505F0FD058A
:10468000ABE72028A9D92F28A7D028280DD03B2870
:104690000DD04E2C0DD8A0F16103DBB2192B98BFC1
:1046A0002038631C3855DCB297E7022595E70425CE
:1046B00093E7012591E700BF50100020880D0020EE
:1046C00004060020A50D002010B5FFF7D5FC064C10
:1046D000FFF790FE637833B9FFF75EF90028F7D152
:1046E0002378082BF4D010BD880D00200148FFF777
:1046F00095BB00BF5DA4000808B55D2000F0C4FDB7
:10470000BDE80840FFF7F2BF10B50446202000F0D6
:10471000BBFD282000F0B8FD212C52D8DFE804F0C2
:10472000111B1D1F21232527292B2D2F31335151DB
:104730005151513537393B3D3F4143454751494B35
:104740004D4F3648FFF76AFB292000F09DFDBDE87C
:104750001040FFF7CBBF3248F4E73248F2E7324867
:10476000F0E73248EEE73248ECE73248EAE7324811
:10477000E8E73248E6E73248E4E73248E2E7324821
:10478000E0E73248DEE73248DCE73248DAE7324831
:10479000D8E73248D6E73248D4E73248D2E7324841
:1047A000D0E73248CEE73248CCE73248CAE7324851
:1047B000C8E73248C6E73248C4E73248C2E7324861
:1047C000C0E70023A4F16400C0B20928DCB203F101
:1047D000010306D804280AD8DFE800F0060F1113F9
:1047E00015000A38C0B2F0E72848FFF717FB032C82
:1047F000AAD8DFE804F00A0C0E102548F5E7254892
:10480000F3E72548F1E72548EFE725489AE72548EB
:1048100098E7254896E7254894E700BFE9A40008F3
:10482000F3A40008FDA40008B2A5000805A500082F
:1048300010A5000818A5000820A5000831A500084B
:104840004BA5000863A5000867A500086FA5000830
:1048500077A5000880A5000898A50008A0A5000875
:10486000A8A50008AFA50008BAA50008C2A50008C1
:10487000CAA50008D3A50008DEA50008F4A5000815
:10488000FCA5000804A600080AA6000834A6000833
:10489000FBA4000810A6000812A6000814A6000831
:1048A00016A600081EA6000826A600082EA60008C8
:1048B0000148FFF7B3BA00BFE6A4000838B50546C3
:1048C000002455F82400FFF765FB042C02D02C20AF
:1048D00000F0DAFC0134052CF3D138BD10B50446E4
:1048E000242000F0D1FC2046FFF7A1FABDE81040DB
:1048F0003D2000F0C9BC10B50C46FFF7EFFFE0B259
:10490000FFF795FABDE81040FFF7F0BE38B50C464A
:104910001546FFF7E3FF29462046FFF7D7FABDE823
:104920003840FFF7E3BE000010B5044620B9BDE8EB
:1049300010400648FFF772BA0548FFF76FFA2046A5
:10494000FFF775FABDE81040FFF7D0BEDAA4000803
:10495000DFA4000810B504460648FFF75FFA2046BA
:10496000FFF765FAFFF7C2FEBDE810404FF4FA709A
:10497000FEF79ABEE8A2000810B504461448FFF7F7
:104980004DFA601E0A280AD8DFE800F0060D0F1164
:10499000131517191B1D1F000E48FFF73FFABDE83E
:1049A0001040FFF7A3BE0C48F7E70C48F5E70C48AA
:1049B000F3E70C48F1E70C48EFE70C48EDE70C484B
:1049C000EBE70C48E9E70C48E7E70C48E5E700BFF0
:1049D00046A300084CA300085EA3000872A30008C9
:1049E00084A300088CA3000895A30008A0A30008D6
:1049F000ADA30008B5A30008C8A30008DAA3000807
:104A000008B54FF4FA70FEF74FFEBDE808400148C4
:104A1000FFF704BA43A400080148FFF7FFB900BF3D
:104A2000F9A300082DE9F0477E4C002094F85010BF
:104A3000FFF761FF94F854100120FFF75CFF94F832
:104A400051100220FFF757FFB4F852100320FFF770
:104A500052FFB4F86A100420C1F38001FFF74BFF46
:104A6000B4F86A100520C1F38011FFF744FFB4F8D1
:104A70006A100620C1F3C011FFF73DFF94F8815082
:104A80000720FFF72BFF2846FFF7F9F9FFF72EFE67
:104A90000720FFF739FED4F884500820FFF71EFFE7
:104AA0002846FFF7ECF9FFF721FE0820FFF72CFE60
:104AB000D4F888500920FFF711FF2846FFF7DFF9E7
:104AC000FFF714FE0920FFF71FFE94F855100A2087
:104AD000FFF711FF0322A16D0B20FFF717FF032241
:104AE000E16D0C20FFF712FF94F86A100D2001F021
:104AF0000101FFF700FF94F868501320FFF7EEFE66
:104B00002846FFF7BCF9FFF7F1FD1320FFF7FCFD86
:104B1000B4F86A101420C1F34011FFF7ECFEB4F8AA
:104B20006A101520C1F3C001FFF7E5FEB4F86A1062
:104B30001620C1F30011FFF7DEFE94F86C10172069
:104B4000FFF7D9FE0322216F1820FFF7DFFE0322B3
:104B5000616F1920FFF7DAFEB4F878101A20FFF71A
:104B6000CAFE0322E16F1B20FFF7D0FE94F88000FD
:104B7000FCF784F8002201461C20FFF7C7FE1C202A
:104B8000FFF7C2FD0022216E1E20FFF7BFFE0022AC
:104B9000616E1F20FFF7BAFEB4F86A102020C1F33F
:104BA0004001FFF7A8FEB4F86A102120C1F30021EC
:104BB000FFF7A1FE4FF000086425DFF86CA02C463B
:104BC0006F1D184E5FFA88F9FFB2B9F1030F0BD8C9
:104BD000DFE809F002181B22032231682046FFF7A4
:104BE00095FE2046FFF790FD0134E4B2BC4206F189
:104BF0000406EAD10A35EDB2962D08F10108DED19E
:104C0000BDE8F08703227169E8E75146B06AFCF716
:104C100041F903220146E1E7F16B032201F1004172
:104C2000DCE700BF50100020000061457FB50B4855
:104C3000FFF7F4F80A4901A802F0B0F901A8FFF75C
:104C40003DFE3A2000F020FB064B5879FFF7EFF8C5
:104C5000FFF752FD07B05DF804FB00BF75A4000824
:104C6000A80D0020880D00202DE9F0410025234EDD
:104C7000234FDFF8A48086B0ECB201A9204600F0F3
:104C8000A2FD50B91F48FFF7C9F80720FFF7CFF87A
:104C9000FFF72CFD06B0BDE8F0813046FFF7BEF807
:104CA000062C07D0072C27D004F13600C0B2FFF73E
:104CB000BEF802E03846FFF7B1F83A2000F0E4FA17
:104CC000013501A8FFF7FAFDFFF716FD082DD3D136
:104CD0000D48FFF7A3F80D48FFF7F0FDFFF70CFDB7
:104CE0000B48FFF79BF80B4BD86DFFF753F9FFF715
:104CF00003FDFFF79BFFCDE74046DCE760A400081B
:104D000063A40008DFA4000869A40008100D0020B7
:104D10006FA40008C80C002066A4000810B5484C19
:104D20004848FFF77BF820788B2805D94648FFF7DD
:104D300075F820787630C0B2FFF779F84348FFF76E
:104D40006DF8A0793630C0B2FFF771F83F48FFF731
:104D500065F820791130C0B2FFF769F83B48FFF7DA
:104D60005DF8A078C0F11500C0B2FFF760F83748D1
:104D7000FFF754F8E0785A30C0B2FFF758F83348DC
:104D8000FFF74CF86078C0F15E00C0B2FFF74FF853
:104D9000E37973B1FFF78CFDE079032806D01E2874
:104DA00001D0022805D1FFF742F802E0302000F0E0
:104DB0006BFAFFF77DFD637A102B04D0202B38D0DF
:104DC00023B9352000E0332000F05EFAFFF770FDD4
:104DD000A37A23B1FFF76CFD362000F055FAFFF7F8
:104DE00067FD237A3BB31A0604D5FFF761FD372030
:104DF00000F04AFA237A5B0604D5FFF759FD382004
:104E000000F042FA1248FFF709F8207EFFF70FF88A
:104E10001048FFF703F86069FFF7D0F80E48FEF777
:104E2000FDFF20690021FFF751F8BDE81040FFF7B2
:104E300063BC3420C8E7FFF73BFD3920E0E700BF43
:104E4000C80C0020E3A30008E9A30008EDA30008B4
:104E5000F0A30008F3A30008F6A3000838B5054640
:104E60000C460848FEF7DAFF2846FEF7E0FF3D2033
:104E700000F00AFA2046FEF7D1FFBDE83840FFF700
:104E800035BC00BFD7A4000838B505460C463E2007
:104E900000F0FAF92846FEF7C1FF3A2000F0F4F9D5
:104EA0002046BDE83840FFF73FBD000010B504467E
:104EB0001C48FEF7B3FF2046FEF7B0FFFFF71CFCCF
:104EC0001948FEF7ABFF2046FEF7A8FFFFF714FCDA
:104ED0001648FEF7A3FF2046FEF7A0FFFFF70CFCE5
:104EE0001348FEF79BFF562000F0CEF94D2000F04E
:104EF000CBF95A2000F0C8F9482000F0C5F94C2041
:104F000000F0C2F92C2000F0BFF90F20FEF78FFF50
:104F10002C2000F0B9F9FE20FEF789FFBDE8104013
:104F2000FFF7EABBEFA2000803A3000824A30008D0
:104F300040A300082DE9F04FA94D91B001AC0FCD71
:104F40000FC42B680DF11809236001A94846A54C30
:104F500002F024F83C2000F097F92378082B4FD07A
:104F600031D8012B52D047D3022B51D0042B4BD038
:104F70009D4B93F85570984617F001075AD10025BC
:104F80009A4E0DF12C0BD6F85CA0303604367169C0
:104F90003068FBF7C3FD022D4BF8250003D15146C5
:104FA000FBF7BCFD0D903FB959F825005BF82510C3
:104FB000FBF7B2FD49F825000135052DE6D1002F9C
:104FC0003BD18B483AE0202B1CD00FD8102BCFD1EF
:104FD00094F90230002B15DB8648FEF71FFFA378FB
:104FE000DF0723D5302000F04FF9C1E7402B11D067
:104FF000802BBDD1804800E08048FEF70FFFB7E767
:105000007F48FAE77F48F8E77F48F6E77F48F4E70C
:105010007F48F2E77F48FEF701FFA3781E0701D51E
:105020003320E0E75D0703D59806DBD53120DAE7CA
:105030003220D8E7237B002BA1D07748FEF7EEFE85
:105040004846FFF73BFC98F8553099070ED5734852
:10505000FEF7E4FEFEF7C0FEFEF7E9FE2C2000F0AE
:1050600013F900F0E7F8C0B2FEF7E1FE6C48FEF776
:10507000D5FE01F0EDFDFEF7A1FF2C2000F004F9B4
:1050800000212069FEF722FFFDF7D8FC064601F05B
:1050900001FF0546FEF7C4FF46EA0503034313F08C
:1050A000FF0F07463AD05F48FEF7B8FE17B1502011
:1050B00000F0EAF8C6B1F20702D5582000F0E4F893
:1050C000B30702D5592000F0DFF8770702D55A2040
:1050D00000F0DAF8300702D5412000F0D5F8F106EB
:1050E00002D5422000F0D0F8C5B1EA0702D544202D
:1050F00000F0CAF8AB0702D5522000F0C5F86F07E0
:1051000002D5482000F0C0F82E0702D5532000F049
:10511000BBF8E80602D5462000F0B6F8237B6BB159
:10512000013B2373E37A23B3013BE3723E2000F09B
:10513000ABF8FFF7DBFA11B0BDE8F08F23789906E2
:1051400005D53948FEF76AFE0BA8FFF7B7FB2378B1
:1051500013F07C0F14BF1D2313232373E37A0BB9C1
:105160000123E3723048FEF759FE0BA8FFF7A6FBB8
:10517000D8E723782D4813F07C0F14BF13230E2398
:10518000E372FEF74BFEE079FEF751FE2C2000F0B3
:105190007BF8207AFEF74BFE2C2000F075F8607A41
:1051A000FEF745FE00F092FC0546FCF75DFB044669
:1051B0000DB90028BAD01E48FEF730FE2DB1012DE2
:1051C0000CBF5320432000F05FF8E20702D54620D1
:1051D00000F05AF8A307A9D54D2000F055F8A5E72F
:1051E000BC0D0020880D002050100020C80C0020AD
:1051F000B2A4000884A40008A5A400087BA40008A9
:1052000080A400088AA400088EA4000893A40008C3
:1052100099A400089FA40008ABA40008B9A4000842
:10522000BEA40008C3A40008C8A40008CEA40008B7
:10523000D3A40008064B074A1B8812889BB29342EE
:1052400094BF03F1FE0003F1FF30801A80B2704773
:10525000580600205606002007B501211020FCF753
:10526000A3F902238DF8063048238DF807304FF458
:10527000804302A921F8043D0248FCF76FF803B00F
:105280005DF804FB00100140F8B51C4E07464FF4D2
:1052900080411B483478FCF7BBF840B939461948BF
:1052A000FCF7D8FA174A13881906FCD5F8BD013463
:1052B000E4B2802C08BF0024134A14491378A34297
:1052C00017D03378124AD754124B1B78022B0ED1C9
:1052D000114D01222888394680B200F1005000F5B6
:1052E0009870FCF791FB2B8801339BB22B803470B4
:1052F00002E00B78DB06E1D5F8BD00BF5A060020BE
:1053000000100140003801405B060020A50D002080
:10531000D40D0020880D002054060020094A0A49B7
:10532000138809889BB2994209D0084911F81300E3
:1053300001339BB2FE2B08BF002313807047FF2070
:10534000704700BF5806002056060020540E00206B
:10535000F8B504464E4D4F4F4618B44200D1F8BD43
:1053600014F8013B212B54D046D8182B4AD01A06EA
:105370007DD5843B1D2BF0D801A252F823F000BF4D
:10538000175400081B5400085B5300085B530008C7
:105390005B5300085B5300085B5300085B53000835
:1053A0005B5300085B5300085B5300085B53000825
:1053B000275400082F5400083354000837540008BD
:1053C0003B5400083F540008435400084754000869
:1053D0005B5300084B54000853540008575400080E
:1053E0005B5400085F540008635400085B530008D6
:1053F000675400086B5400083F2B06D07E2BB6D1B3
:10540000022003E0FEF794F8A7E7012001F006FE72
:10541000A3E70820FAE72020F8E71F4B1B789B063C
:105420009BD54020F2E7012001F098FF95E702208C
:10543000FAE70420F8E70820F6E71020F4E7202038
:10544000F2E74020F0E78020EEE7012001F090FF36
:1054500083E70220FAE70420F8E70820F6E71020A7
:10546000F4E72020F2E74020F0E78020EEE72888EC
:105470003988421CD2B2FE2A08BF002289B292B2F9
:105480008A421EBF05492A8021F8103065E700BF17
:105490005606002058060020880D0020540E0020DB
:1054A00013B53D4A13889BB20193019B98062CD5F6
:1054B00093889BB2DAB2212A2DD017D8182A1BD094
:1054C000190656D5843A1D2A18D8DFE802F0262896
:1054D000171717171717171717172E323436383AAA
:1054E0003C3E17404446484A4C174E503F2A0ED087
:1054F0007E2AE5D102200BE0FEF71AF8264A13882F
:1055000023F020031B041B0C138002B010BD0120EC
:1055100001F084FDF2E70820FAE72020F8E71F4BAE
:105520001B789B06EAD54020F2E7012001F016FF28
:10553000E4E70220FAE70420F8E70820F6E7102065
:10554000F4E72020F2E74020F0E78020EEE701209A
:1055500001F00EFFD2E70220FAE70420F8E7082066
:10556000F6E71020F4E72020F2E74020F0E7802063
:10557000EEE70B480B4904880988631CDBB2FE2B5D
:1055800008BF002389B29BB28B421EBF064903802D
:1055900021F81420B2E700BF00380140880D002038
:1055A0005606002058060020540E0020024B1A8890
:1055B000024B1A80704700BF560600205806002094
:1055C00038B505460C46FFF77FF8512303FB05F07D
:1055D0002146BDE83840502200F54070FCF714BA6F
:1055E0000146502240F2AE30FCF70EBA38B50546FF
:1055F0000C46FFF769F8152303FB05F02146BDE8CB
:105600003840142200F50070FCF7FEB908B50A21F5
:105610000020FCF7F3F9BDE80840C422014901204D
:10562000FCF7F2B95010002030B50446E00787B00F
:1056300050D56421414B0A2283F85410C3F88410DA
:10564000C3F888101F2183F855103D4983F8502076
:1056500099653C490022D9653B4983F85120196678
:105660004FF07E515966032183F86C10374983F857
:1056700081201967364983F868205967FA2150223A
:10568000A3F8781033490120D9670421A3F86A20D0
:10569000314AA3F852001A605A609A602F4A83F880
:1056A0008010DA601A612E4A5A619A612D4ADA61D5
:1056B0001A625A622C4A9A62DA621A635A639A63CD
:1056C0002A4ADA632A4A1A642A4A5A649A64DA64C9
:1056D000FFF79CFFA1070CD51422002101A803F0BD
:1056E00084F80025E8B201A90135FFF77FFF082DF6
:1056F000F8D1620713D500214FF44070FCF77EF912
:10570000002140F20130FCF779F9002140F25130DC
:10571000FCF774F9002140F25230FCF76FF92307CF
:1057200009D5002140F2AE30FCF768F9002140F2C3
:10573000AF30FCF763F907B030BD00BF5010002058
:105740000AD7233C6F12033B00803B4600001644FF
:1057500000803B45000020400000A04200002043A4
:105760000080BB440000FA434054094B000066C36C
:105770000000A0C3000048C370B50D46512141434D
:105780000646502201F540712846FCF757F90446B9
:1057900030B9287029463046FFF712FF204670BD09
:1057A000012070BD38B5502240F2AE310546FCF7FD
:1057B00045F9044628B928702846FFF711FF20460E
:1057C00038BD012038BD70B50C4615214143064651
:1057D000142201F500712046FCF730F9054658B94E
:1057E0000023304623606360A360E36023612146A9
:1057F000FFF7FCFE284670BD012070BD08B50020F3
:10580000FCF7F6F80A2808D1C42201210448FCF765
:1058100015F9003018BF012008BD002008BD00BFE9
:105820005010002038B50C46054600212046FBF7F5
:105830001BFC002840F02D81632D34D9A5F16403B1
:10584000DBB2042BC2B225D8032A06D8DFE802F067
:1058500002090E1B934A42F82340FFF7D7FE0020AF
:1058600038BD904A02EB83035C61F6E78E4920461F
:1058700003F10A05FBF75AFA8B49FBF757FA894BF4
:1058800043F82500E9E7874A04F1004402EB83036B
:10589000DC63E2E7092B40F2FE800130052800F0CE
:1058A000FA800A3BCCE7204603F006F9FBF740FC00
:1058B000C0B2212D00F2EF80DFE815F022002900B0
:1058C0002D003300370043004D005C00600067008E
:1058D0006E00720075007800ED00ED00ED00ED0047
:1058E000ED0086008D009900A700B100B500B8005A
:1058F000BB00BF00C200ED00CC00D100D400DE0030
:10590000022840F2CA80674B83F85000A5E7654B38
:1059100083F85400A1E7634B83F8510000F02AFD9F
:105920009BE7604BA3F85200F8E75E4BB3F86A20A0
:1059300020B142F00402A3F86A208EE722F00402AC
:10594000F9E7584BB3F86A2010B142F04002F2E791
:1059500022F04002EFE7534BB3F86A2038B142F02F
:1059600080020020A3F86A20FEF73CFB75E722F0D6
:105970008002F6E74B4B83F881006EE72046FBF789
:10598000D7FB484BC3F8840067E72046FBF7D0FB02
:10599000444BC3F8880060E7424B83F855005CE74E
:1059A000404B9C6559E73F4BDC6556E73D4BB3F8F0
:1059B0006A2030B142F00102A3F86A2001F0D6FA61
:1059C0004BE722F00102F7E72046FBF7B1FB354B2E
:1059D00083F8680041E7334BB3F86A2020B1D10661
:1059E0005DD542F02002A6E722F02002A3E72D4B6E
:1059F000B3F86A2030B142F00802A3F86A20FDF73C
:105A000013F82AE722F00802F7E7264BB3F86A20DA
:105A100010B142F010028EE722F030028BE7214BEA
:105A200083F86C0019E71F4B1C6716E71D4B5C677A
:105A300013E71C4BA3F878000FE71A4BDC670CE761
:105A40002046FBF775FB174BC0B283F8800000F0CF
:105A500059F802E7134B1C6693F88000F7E7114BE7
:105A60005C66F9E70F4BB3F86A2010B142F480721C
:105A700061E722F002025EE70A4BB3F86A2028B120
:105A800042F48072A3F86A20122038BD22F480729A
:105A9000F8E7042038BD032038BD062038BD0A20B1
:105AA00038BD00BF501000200000704208B5FFF75D
:105AB000A5FE48B90720FEF737FFFF20FFF7B4FD2A
:105AC000BDE80840FEF7AEBF08BD000008B50448B9
:105AD000FBF7A4FC10F0040F14BF0220012008BD46
